:020000040800F2
:1000000000500020B1310008CD020008CF020008E6
:10001000D1020008D3020008D50200080000000049
:10002000000000000000000000000000D7020008EF
:10003000D902000800000000DB020008DD02000811
:10004000F9310008F9310008F9310008F9310008E8
:10005000F9310008F9310008F9310008F9310008D8
:10006000F9310008F9310008F9310008F9310008C8
:10007000F931000805030008F9310008F9310008DA
:10008000F9310008F5020008F9310008F9310008DB
:10009000F9310008F9310008F9310008F931000898
:1000A000F9310008B1260008F9310008F9310008DB
:1000B000C1260008F9310008F9310008F9310008BB
:1000C000F9310008F9310008F9310008F931000868
:1000D000F9310008F931000825030008150300086C
:1000E000F9310008F9310008F9310008000000007A
:1000F0000000000000000000000000000000000000
:0C01000000000000000000005FF808F1A3
:10010C0010B5054C227832B9044B13B10448AFF347
:10011C0000800123237010BD90010020000000001E
:10012C0044320008074B10B51BB107490748AFF321
:10013C0000800748036823B1064B13B1BDE810409B
:10014C00184710BD00000000940100204432000844
:10015C0090010020000000000F4B1A6842F00102D1
:10016C001A6059680D4A0A405A601A6822F0847263
:10017C0022F480321A601A6822F480221A605A68BB
:10018C0022F4FE025A604FF41F029A604FF0006294
:10019C00034B9A60704700BF001002400000FFF84C
:1001AC0000ED00E000220B4B5A700B4B9B7813F0C8
:1001BC00020F02D10122074B5A70074B9B7813F0A8
:1001CC00040F04D1034A537843F002035370002008
:1001DC00704700BF040000204406002038B50024FE
:1001EC00012C3BDC1CB1012C12D0012038BD1C4869
:1001FC0002F03EFD0023C21C062A0ED819495A00F3
:10020C00D518680008440025057145800134E7E7DE
:10021C00134802F0F9FC0123EDE7002816DD5A0023
:10022C001A4451000F4A0A44012111710028B8BF29
:10023C0040425A0013445A000A4B1344C0EB40127C
:10024C0000EB820000EB80005880DFE75A001A4474
:10025C005100044A0A4402211171E7E7002038BD1D
:10026C00440600200800002008B5044B182204495D
:10027C00044802F00BFB002008BD00BF90320008C0
:10028C00883200089832000808B54FF4005102205B
:10029C0002F09CFA40B1084802F0DCFAFFF79EFF2E
:1002AC00034628B1184608BD044802F0D3FAF5E716
:1002BC00FFF778FF0346F5E79C320008B0320008E0
:1002CC007047FEE7FEE7FEE7FEE7704770477047B2
:1002DC0008B501F0B7F801F03EFB024A1368013390
:1002EC00136008BD4006002008B5024B186B01F0E6
:1002FC001FFC08BD0801002008B5024B586B01F02B
:10030C0017FC08BD4801002008B5024802F05FF850
:10031C0008BD00BF4801002008B5024802F057F89C
:10032C0008BD00BF0801002000B583B01C4B9A69C2
:10033C0042F001029A619B6903F001030193019B56
:10034C00032001F05BFA002211466FF00B0001F064
:10035C0073FA002211466FF00A0001F06DFA0022C8
:10036C0011466FF0090001F067FA002211466FF098
:10037C00040001F061FA002211466FF0030001F055
:10038C005BFA002211466FF0010001F055FA0022D1
:10039C0011464FF0FF3001F04FFA03B05DF804FB4B
:1003AC000010024010B588B00368214A934204D073
:1003BC00204A934225D008B010BD1F4CA36943F0CE
:1003CC000803A361A36903F008030193019B4FF495
:1003DC0040730493122305930323079304A917482E
:1003EC0001F04CF8164A536843F002035360E3697A
:1003FC0043F40013E361E36903F400130293029BDB
:10040C00D9E74FF440630493122305930323079316
:10041C0004A90A4801F032F8074BDA6942F4800269
:10042C00DA61DB6903F480030393039BC3E700BF2A
:10043C00005400400058004000100240000C0140E5
:10044C0000000140F0B58DB00368724A934209D0A8
:10045C000446714A93422FD0704A934200F0868032
:10046C000DB0F0BD6E4B9A6942F480429A619A6964
:10047C0002F480420192019A9A6942F004029A6154
:10048C009B6903F004030293029B4FF400730893DF
:10049C000223099303230B93624C08A9204600F016
:1004AC00EDFF4FF480630893002309930A9308A986
:1004BC00204600F0E3FFD3E7594EF36943F40033D1
:1004CC00F361F36903F400330393039BB36943F0C3
:1004DC000403B361B36903F004030493049B042382
:1004EC0008930223099303230B934E4F08A9384614
:1004FC0000F0C4FF08230893002509950A9508A964
:10050C00384600F0BBFF736943F0010373617369F4
:10051C0003F001030593059B434E444B33601027B6
:10052C007760B5608023F36035617561B561F56105
:10053C00304601F027FA2663746201222946112005
:10054C0001F07AF9112001F0BBF92A462946384608
:10055C0001F072F9384601F0B3F901222946262040
:10056C0001F06AF9262001F0ABF979E72C4BDA6936
:10057C0042F48022DA61DA6902F480220692069A49
:10058C009A6942F010029A619B6903F01003079379
:10059C00079B4FF4806308930223099303230B9367
:1005AC00234D08A9284600F069FF4FF40063089317
:1005BC00002609960A9608A9284600F05FFF1D4AF6
:1005CC00536823F0300343F0100353601A4D1B4B58
:1005DC002B606E60AE608023EB602E616E61AE614D
:1005EC004FF40053EB61284601F0CCF965636C6263
:1005FC00324631460D2001F01FF90D2001F060F953
:10060C0001223146272001F017F9272001F058F973
:10061C0026E700BF0038014000440040004800407D
:10062C000010024000080140E4010020800002405C
:10063C000010014000000140AC01002030000240DD
:10064C00FEE7000030B583B00446002856D023687E
:10065C0013B113F00F0F57D0236813F0010F75D09F
:10066C00636853B1B3F5803F07D0B3F5A02F04D026
:10067C0040F21511C348FFF7E3FFC34B5B6803F06F
:10068C000C03042B4BD0C04B5B6803F00C03082B02
:10069C0040D06368B3F5803F00F09E80002B40F0A3
:1006AC00A18003F1804303F504331A6822F48032ED
:1006BC001A601A6822F480221A606368002B00F01A
:1006CC00AB8000F0C7FE05464FF4003393FAA3F35A
:1006DC00AD4B1A684FF4003393FAA3F3B3FA83F3D8
:1006EC0003F01F0322FA03F313F0010F2ED100F0D5
:1006FC00B1FE401B6428E7D9032021E34FF4877136
:10070C00A048FFF79DFFA2E740F20F119D48FFF7AD
:10071C0097FFA1E79C4B5B6813F4803FB9D04FF473
:10072C00003393FAA3F3984B1A684FF4003393FAFF
:10073C00A3F3B3FA83F303F01F0322FA03F313F0CA
:10074C00010F03D06368002B00F0F382236813F0D1
:10075C00020F00F0AD802369012B04D940F249113E
:10076C008848FFF76DFF63691F2B72D8864B5B6857
:10077C0013F00C0F78D0844B5B6803F00C03082B40
:10078C006DD02369002B00F0D680012292FAA2F3DF
:10079C00B3FA83F39B0003F1844303F584031A60DB
:1007AC0000F058FE0546022393FAA3F3764B1A6821
:1007BC00022393FAA3F3B3FA83F303F01F0322FA91
:1007CC0003F313F0010F40F0A78000F043FE401B31
:1007DC000228E8D90320B3E26B4A136843F4803350
:1007EC0013606AE7B3F5A02F09D0674B1A6822F49F
:1007FC0080321A601A6822F480221A605DE703F1D5
:10080C008043A3F53C331A6842F480221A601A68BC
:10081C0042F480321A6050E700F01CFE05464FF49B
:10082C00003393FAA3F3584B1A684FF4003393FA3E
:10083C00A3F3B3FA83F303F01F0322FA03F313F0C9
:10084C00010F83D000F006FE401B6428E7D903207B
:10085C0076E24FF4A5714B48FFF7F2FE86E74A4B60
:10086C005B6813F4803F8CD1022393FAA3F3464BBD
:10087C001A68022393FAA3F3B3FA83F303F01F036A
:10088C0022FA03F313F0010F04D02369012B01D0DA
:10089C00012055E23C48036823F0F8036169F82213
:1008AC0092FAA2F2B2FA82F201FA02F21343036054
:1008BC00236813F0080F6ED0A369012B04D94FF4F1
:1008CC00C5713048FFF7BCFEA369002B00F0908087
:1008DC00012292FAA2F3B3FA83F32C4941F82320B4
:1008EC0000F0B8FD0546022393FAA3F293FAA3F2A3
:1008FC00254A526A93FAA3F3B3FA83F303F01F0366
:10090C0022FA03F313F0010F42D100F0A3FD401BB8
:10091C000228E8D9032013E21B48036823F0F803EC
:10092C006169F82292FAA2F2B2FA82F201FA02F2A8
:10093C0013430360BCE7012393FAA3F3B3FA83F3E5
:10094C009B0003F1844303F5840300221A6000F03A
:10095C0081FD0546022393FAA3F30B4B1A6802237D
:10096C0093FAA3F3B3FA83F303F01F0322FA03F30E
:10097C0013F0010F9CD000F06DFD401B0228E9D94B
:10098C000320DDE1C0320008001002408004424226
:10099C00012000F065FD236813F0040F00F0CE80F9
:1009AC00E368012B06D9052B04D040F2B711B648E9
:1009BC00FFF746FEB54BDA6942F08052DA61DB692B
:1009CC0003F080530193019BB14A136843F4807385
:1009DC00136000F03FFD0546AD4B1B6813F4807FA0
:1009EC002BD100F037FD401B6428F5D90320A7E17B
:1009FC00012393FAA3F3B3FA83F30021A54A42F837
:100A0C00231000F027FD0546022393FAA3F293FA74
:100A1C00A3F29E4A526A93FAA3F3B3FA83F303F058
:100A2C001F0322FA03F313F0010FB4D000F012FDF0
:100A3C00401B0228E8D9032082E1E368012B13D084
:100A4C00C3B903F1804303F504331A6A22F001029F
:100A5C001A621A6A22F004021A62E368002B44D06C
:100A6C0000F0F8FC054631E0884A136A43F00103B4
:100A7C001362F2E7052B09D0844B1A6A22F00102AB
:100A8C001A621A6A22F004021A62E6E77F4B1A6AAB
:100A9C0042F004021A621A6A42F001021A62DCE79E
:100AAC007A4B1A6A022393FAA3F3B3FA83F303F093
:100ABC001F0322FA03F313F0010F3FD100F0CAFC1D
:100ACC00401B41F28833984200F23581022393FA9D
:100ADC00A3F293FAA3F3B3FA83F35B0943F0020393
:100AEC00022BDDD0694B5A6ADCE700F0B3FC0546FB
:100AFC0015E0664B1A6A022393FAA3F3B3FA83F355
:100B0C0003F01F0322FA03F313F0010F16D000F0C9
:100B1C00A1FC401B41F28833984200F20E81022363
:100B2C0093FAA3F293FAA3F3B3FA83F35B0943F0BA
:100B3C000203022BDDD0554B5A6ADCE7E369022B2A
:100B4C0037D8E369002B00F0FA80504A526802F063
:100B5C000C02082A00F0F680022B30D04FF0807384
:100B6C0093FAA3F3B3FA83F39B0003F1844303F5E5
:100B7C00840300221A6000F06DFC04464FF00073F1
:100B8C0093FAA3F3414B1A684FF0007393FAA3F353
:100B9C00B3FA83F303F01F0322FA03F313F0010FEC
:100BAC0000F0C58000F056FC001B0228E6D903209B
:100BBC00C6E040F247213448FFF742FDC1E7236A03
:100BCC003BB1B3F5803F04D04FF414712E48FFF7BE
:100BDC0037FD636A73B3B3F5802F2BD0B3F5002FB9
:100BEC0028D0B3F5402F25D0B3F5801F22D0B3F514
:100BFC00A01F1FD0B3F5C01F1CD0B3F5E01F19D038
:100C0C00B3F5001F16D0B3F5101F13D0B3F5201F8A
:100C1C0010D0B3F5301F0DD0B3F5401F0AD0B3F58B
:100C2C00501F07D0B3F5601F04D040F25121164875
:100C3C00FFF706FD4FF0807393FAA3F3B3FA83F337
:100C4C009B0003F1844303F5840300221A6000F037
:100C5C0001FC05464FF0007393FAA3F30B4B1A6893
:100C6C004FF0007393FAA3F3B3FA83F303F01F036B
:100C7C0022FA03F313F0010F0ED000F0EBFB401B34
:100C8C000228E7D903205BE0C032000800100240C4
:100C9C000070004080044242236AB3F5803F32D09A
:100CAC0029494B6823F47413226A606A0243134384
:100CBC004B604FF0807393FAA3F3B3FA83F39B006A
:100CCC0003F1844303F5840301221A6000F0C2FB94
:100CDC0004464FF0007393FAA3F31B4B1A684FF0C2
:100CEC00007393FAA3F3B3FA83F303F01F0322FA0E
:100CFC0003F313F0010F18D100F0ACFB001B02281A
:100D0C00E7D903201CE0A3683BB1B3F5003F04D046
:100D1C0040F267210D48FFF793FC0B4A536823F40C
:100D2C000033A1680B435360BAE7002008E00020B1
:100D3C0006E0012004E0032002E0032000E0002094
:100D4C0003B030BD0120FBE700100240C0320008A8
:100D5C0030B486B01D4D02AC28686968AA68EB688F
:100D6C000FC42B8AADF80430194B5B6803F00C02EE
:100D7C00082A27D103F470124FF4701191FAA1F1E3
:100D8C00B1FA81F1CA4006A90A4412F8100C13F406
:100D9C00803F03D10F4B03FB00F014E00C4B5B685E
:100DAC0003F400334FF4003292FAA2F2B2FA82F258
:100DBC00D3400B4413F8142C074BB3FBF2F303FB97
:100DCC0000F000E0044806B030BC70475C3200080C
:100DDC000010024000093D0000127A0070B50D466B
:100DEC000446C0B1236813F00F0F1AD0022D1ED881
:100DFC009B4B1B6803F007039D421ED9984A13684E
:100E0C0023F007032B431360136803F007039D4281
:100E1C0013D0012070BD4FF42F719248FFF710FCD6
:100E2C00E0E740F2BD218F48FFF70AFCDEE740F215
:100E3C00BE218C48FFF704FCDAE7236813F0020F9D
:100E4C001DD0A368A3B1802B12D0902B10D0A02B57
:100E5C000ED0B02B0CD0C02B0AD0D02B08D0E02B4E
:100E6C0006D0F02B04D040F2D7217E48FFF7E8FBE8
:100E7C007D4A536823F0F003A1680B435360236849
:100E8C0013F0010F00F084806368022B32D8636882
:100E9C00012B35D0022B48D0022292FAA2F2724AD0
:100EAC001168022292FAA2F2B2FA82F202F01F0246
:100EBC0021FA02F212F0010F00F0D0806A494A6860
:100ECC0022F0030213434B6000F0C4FA0646636839
:100EDC00012B3FD0022B4CD0634B5B6813F00C0FF3
:100EEC0056D000F0B7FA801B41F288339842F3D900
:100EFC00032070BD40F2DE215A48FFF7A1FBC6E784
:100F0C004FF4003292FAA2F2574A11684FF40032B1
:100F1C0092FAA2F2B2FA82F202F01F0221FA02F263
:100F2C0012F0010FCAD1012070BD4FF0007292FA7D
:100F3C00A2F24D4A11684FF0007292FAA2F2B2FA84
:100F4C0082F202F01F0221FA02F212F0010FB5D167
:100F5C00012070BD444B5B6803F00C03042B17D0CD
:100F6C0000F078FA801B41F288339842F2D90320C2
:100F7C0070BD3D4B5B6803F00C03082B08D000F0F0
:100F8C0069FA801B41F288339842F2D9032070BD74
:100F9C00334B1B6803F007039D420CD2304A136895
:100FAC0023F007032B431360136803F007039D42E0
:100FBC0001D0012070BD236813F0040F19D0E36831
:100FCC0083B1B3F5806F0DD0B3F5A06F0AD0B3F534
:100FDC00C06F07D0B3F5E06F04D040F23231214836
:100FEC00FFF72EFB204A536823F4E063E1680B43C0
:100FFC005360236813F0080F1AD0236983B1B3F53B
:10100C00806F0DD0B3F5A06F0AD0B3F5C06F07D0C9
:10101C00B3F5E06F04D040F239311248FFF710FB02
:10102C00114A536823F46053216943EAC1035360A6
:10103C00FFF78EFE0C4B5B6803F0F003F02292FA84
:10104C00A2F2B2FA82F2D340084AD35CD840084BE1
:10105C001860002000F0D0F9002070BD012070BD98
:10106C0000200240C032000800100240703200081C
:10107C0000000020014B1868704700BF00000020E2
:10108C0008B5FFF7F7FF074B5B6803F4E0634FF419
:10109C00E06292FAA2F2B2FA82F2D340024AD35C34
:1010AC00D84008BD001002408032000808B5FFF798
:1010BC00E1FF074B5B6803F460534FF4605292FA04
:1010CC00A2F2B2FA82F2D340024AD35CD84008BDF5
:1010DC00001002408032000870477047704770471C
:1010EC00704710B5044603681A6912F0020F11D04C
:1010FC00DA6812F0020F0DD06FF002021A610123B0
:10110C00037603689B6913F0030F70D0FFF7E6FFBB
:10111C000023237623681A6912F0040F12D0DA68C0
:10112C0012F0040F0ED06FF004021A610223237622
:10113C0023689B6913F4407F5FD02046FFF7CEFFF6
:10114C000023237623681A6912F0080F12D0DA688C
:10115C0012F0080F0ED06FF008021A6104232376E8
:10116C002368DB6913F0030F4ED02046FFF7B6FF60
:10117C000023237623681A6912F0100F12D0DA6854
:10118C0012F0100F0ED06FF010021A6108232376A4
:10119C002368DB6913F4407F3DD02046FFF79EFFA8
:1011AC000023237623681A6912F0010F03D0DA6842
:1011BC0012F0010F36D123681A6912F0800F03D098
:1011CC00DA6812F0800F34D123681A6912F0400FDC
:1011DC0003D0DA6812F0400F32D123681A6912F08A
:1011EC00200F03D0DA6812F0200F30D110BDFFF7BA
:1011FC0074FF2046FFF773FF8AE72046FFF76DFF69
:10120C002046FFF76CFF9BE72046FFF766FF204662
:10121C00FFF765FFACE72046FFF75FFF2046FFF7BF
:10122C005EFFBDE76FF001021A612046FFF754FF25
:10123C00C1E76FF080021A61204600F091FBC3E712
:10124C006FF040021A612046FFF74AFFC5E76FF0C6
:10125C0020021A61204600F082FBC7E7F0B583B08C
:10126C000446036813F0130F30D0236813F0010FFA
:10127C005BD0636863B1B3F5807F09D0B3F5007FB1
:10128C0006D0B3F5407F03D084215748FFF7D8F937
:10129C00564BDA6942F08052DA61DB6903F0805315
:1012AC000193019B524A136843F48073136000F05E
:1012BC00D1F805464E4B1B6813F4807F0BD100F020
:1012CC00C9F8401B6428F5D9032059E07E21464813
:1012DC00FFF7B6F9C9E7454B1B6A13F440731DD0F1
:1012EC00626802F44072934218D04048016A21F4BB
:1012FC0040764FF4803393FAA3F2B2FA82F23D4D6A
:10130C00012745F8227093FAA3F3B3FA83F3002272
:10131C0045F82320066211F0010F33D1334A136ACA
:10132C0023F4407361680B431362236813F0020FBC
:10133C0015D0A36863B1B3F5804F09D0B3F5004F56
:10134C0006D0B3F5404F03D0BA212748FFF778F900
:10135C00264A536823F44043A1680B435360236827
:10136C0013F0100F3ED0E368B3F5800F00D08BBBA9
:10137C001E4A536823F48003E1680B43536000203A
:10138C0003B0F0BD00F066F8054614E0174B1A6A7E
:10139C00022393FAA3F3B3FA83F303F01F0322FAA5
:1013AC0003F313F0010FB9D100F054F8401B41F2D4
:1013BC008833984214D8022393FAA3F293FAA3F336
:1013CC00B3FA83F35B0943F00203022BDED0074B25
:1013DC005A6ADDE74FF48B710348FFF731F9C7E721
:1013EC000320CDE70020CBE7F832000800100240C4
:1013FC00007000400004424210B50446FFF73AFE6C
:10140C00064BA3FB0030800900F070FA0022214645
:10141C004FF0FF3000F010FA002010BDD34D6210D9
:10142C0008B5074A136843F010031360032000F05B
:10143C00E5F90020FFF7E0FFFEF776FF002008BD7E
:10144C0000200240024A136801331360704700BF4A
:10145C001C020020014B1868704700BF1C020020C2
:10146C0010B582B00190FFF7F5FF0446FFF7F2FFCD
:10147C00001B019B9842F9D302B010BD2DE9F0433B
:10148C0083B080460F46B84B984213D003F5806367
:10149C0098420FD003F5806398420BD003F580631C
:1014AC00984207D003F58063984203D0CF21AF4810
:1014BC00FFF7C6F83B884BB37B68012B22D9112B65
:1014CC0020D0022B1ED0122B1CD0A94A934219D02B
:1014DC0002F58012934215D002F58012934211D07E
:1014EC00A2F5F81293420DD002F58012934209D066
:1014FC0002F58012934205D0032B03D0D1219B48D7
:10150C00FFF79EF84FF000094E467BE0D02197483C
:10151C00FFF796F8D0E7002B00F0C380012B06D123
:10152C00FB68013B022B00F2C980D7F80C90FF2C12
:10153C0000F2F9804046FF2C00F2F880B2000368FC
:10154C000F21914023EA010309FA02F213430360CD
:10155C007B6813F0805F54D0864B9A6942F001028D
:10156C009A619B6903F001030193019BB208911CE2
:10157C00814B53F8213006F0030189000F2088407D
:10158C0023EA00037848804500F0D68000F580609F
:10159C00804500F0D38000F58060804500F0D0805D
:1015AC0000F58060804500F0C580042000FA01F150
:1015BC000B430232704941F822307B6813F4803FB0
:1015CC0000F0C0806D4A1368234313607B6813F4EA
:1015DC00003F00F0BD80694A5368234353607B6829
:1015EC0013F4801F00F0BA80644A9368234393601D
:1015FC007B6813F4001F00F0C780604AD3681C435B
:10160C00D46001360F2E00F2C5800125B5403C6830
:10161C002C40A542F5D1544B984513D003F580636B
:10162C0098450FD003F5806398450BD003F5806384
:10163C00984507D003F58063984503D0DF214B48CC
:10164C00FEF7FEFF7B68122B4FD010D8022B3FD039
:10165C007FF661AF032B60D0112B7FF468AFFB6872
:10166C00013B022B2FD8FB6803F104095FE7444AC6
:10167C00934216D00CD9434A934212D002F58032D1
:10168C0093420ED0A2F5801293427FF450AF08E043
:10169C00A2F58012934204D002F5803293427FF47B
:1016AC0046AFBB68022B2DD8BB68002B38D0012B62
:1016BC002ED0C8F814504FF0080938E7E7212B4812
:1016CC00FEF7BEFF31E7EE212848FEF7B9FFCAE767
:1016DC00FB68013B022B03D8FB6803F1080926E7E2
:1016EC00F5212248FEF7ACFFF6E7FB68013B022B25
:1016FC0003D8FB6803F10C0919E7FC211B48FEF722
:10170C009FFFF6E740F209111848FEF799FFCBE767
:10171C00C8F810504FF0080909E74FF0000906E728
:10172C004FF0040903E708F1040004E7A6F10802EE
:10173C00920004E7032039E7002037E7012035E762
:10174C00022033E70D4A136823EA040313603DE7D4
:10175C000A4A536823EA0403536040E7074A936834
:10176C0023EA0403936043E7000801403033000888
:10177C000000111000100240000001400004014064
:10178C000000211000003110044AD36823EA04043D
:10179C00D46036E703B0BDE8F08300BF000401401D
:1017AC0038B505460C4621B1AB681C4207D1002068
:1017BC0038BD4FF4E2710348FEF742FFF4E7012015
:1017CC0038BD00BF3033000870B5064615460C46D0
:1017DC0051B1012D04D940F2E5110748FEF730FF55
:1017EC0045B92404346170BD4FF4F2710248FEF720
:1017FC0027FFEEE7346170BD3033000810B50446A6
:10180C00C31E042B0FD80A4AD36823F4E0631B04CD
:10181C001B0C240204F4E064234343F0BF6343F441
:10182C000033D36010BDBA210248FEF709FFEAE786
:10183C0000ED00E06833000870B505460C4616460E
:10184C000F2A24D80F2C27D81A4BDB68C3F302239A
:10185C00C3F10702042A28BF0422191D062920D926
:10186C00033B012101FA02F2013A14409C4001FAB7
:10187C0003F3013B33401C43002D14DB2401E4B281
:10188C0005F1604505F5614585F8004370BDD22131
:10189C000948FEF7D5FED5E7D3210748FEF7D0FE61
:1018AC00D2E70023DDE705F00F052401E4B2034B7A
:1018BC005C5570BD00ED00E06833000814ED00E0ED
:1018CC0010B5041E09DB620904F01F04012303FA9E
:1018DC0004F4044B43F8224010BDE6210248FEF705
:1018EC00AFFEF0E700E100E0683300080138B0F12A
:1018FC00807F0AD2064B5860F021064A82F82310EA
:10190C000020986007221A6070470120704700BFC2
:10191C0010E000E000ED00E010B50446042800D013
:10192C0038B9042C0BD0094A136823F00403136054
:10193C0010BD4FF4DF710648FEF782FEF1E7034A53
:10194C00136843F00403136010BD00BF10E000E007
:10195C0068330008704708B5FFF7FCFF08BD7047F7
:10196C00704710B4046863604368102B05D003689B
:10197C0099600368DA6010BC704703689A6003686A
:10198C00D960F8E7002800F08D8010B50446036894
:10199C00454A934215D01432934212D014329342DA
:1019AC000FD0143293420CD01432934209D014321B
:1019BC00934206D01432934203D0B5213B48FEF734
:1019CC003FFE636843B1102B06D0B3F5804F03D0B4
:1019DC00B6213648FEF734FEA368402B01D0002B0D
:1019EC0056D1E368802B01D0002B56D123694BB123
:1019FC00B3F5807F06D0B3F5007F03D0B9212B4817
:101A0C00FEF71EFE63694BB1B3F5806F06D0B3F5DC
:101A1C00006F03D0BA212548FEF712FEA3692BB143
:101A2C00202B03D0BB212148FEF70AFEE36963B1EA
:101A3C00B3F5805F09D0B3F5005F06D0B3F5405F16
:101A4C0003D0BC211948FEF7FBFD94F821300BB9EB
:101A5C0084F82030022384F8213021680A6822F4AB
:101A6C007F5222F030026368A0680343E0680343AE
:101A7C002069034360690343A0690343E06903439E
:101A8C0013430B6000206063012384F8213010BDE8
:101A9C00B7210648FEF7D4FDA3E7B8210348FEF7AB
:101AAC00CFFDA3E70120704708000240A0330008D7
:101ABC00F8B590F82040012C35D01D4616460F463F
:101ACC000446012380F82030022380F821306A1E5E
:101ADC004FF6FE739A4220D82068036823F0010366
:101AEC0003602B46324639462046FFF73AFF226800
:101AFC00136843F0020313602268136843F0040375
:101B0C0013602268136843F008031360226813689B
:101B1C0043F0010313600020F8BD40F2611103484B
:101B2C00FEF78EFDD8E70220F8BD00BFA0330008F9
:101B3C0010B50446984B1A68036898498B4214D028
:101B4C0014318B4232D014318B4231D014318B4250
:101B5C0031D014318B4231D014318B4202D04FF042
:101B6C00006103E04FF4000100E0082111423CD079
:101B7C001A6812F0080F38D01A6822F008021A609E
:101B8C002368864A93421FD01432934245D01432B4
:101B9C00934244D01432934244D01432934244D0F2
:101BAC00143293420DD04FF000620EE08021DDE73D
:101BBC004FF40061DAE74FF40041D7E74FF400210E
:101BCC00D4E74FF4000200E00822734B5A60636BB9
:101BDC0043F001036363042384F82130002384F869
:101BEC002030236B0BB1204698476B4B1A68236847
:101BFC006A498B421FD014318B4241D014318B4235
:101C0C0040D014318B4240D014318B4240D014312F
:101C1C008B420DD04FF080610EE08022D5E74FF45F
:101C2C000062D2E74FF40042CFE74FF40022CCE73A
:101C3C004FF4800100E00421114239D01A6812F0EF
:101C4C00040F35D01A6812F0200F03D11A6822F055
:101C5C0004021A602368514A93421FD014329342F3
:101C6C003ED0143293423DD0143293423DD01432C4
:101C7C0093423DD0143293420DD04FF080620EE06F
:101C8C004021D9E74FF48061D6E74FF48041D3E788
:101C9C004FF48021D0E74FF4800200E004223E4B49
:101CAC005A60112384F82130E36A0BB1204698471F
:101CBC00394B1A68236839498B421FD014318B4237
:101CCC0041D014318B4240D014318B4240D014316E
:101CDC008B4240D014318B420DD04FF000710EE08E
:101CEC004022DCE74FF48062D9E74FF48042D6E71C
:101CFC004FF48022D3E74FF4001100E0022111428F
:101D0C003ED01A6812F0020F3AD01A6812F0200F67
:101D1C0003D11A6822F002021A6023681F4A934208
:101D2C001FD0143293422CD0143293422BD0143245
:101D3C0093422BD0143293422BD0143293420DD0B9
:101D4C004FF000720EE02021D9E74FF40071D6E776
:101D5C004FF40051D3E74FF40031D0E74FF40012A9
:101D6C0000E002220C4B5A60636B6363012384F81E
:101D7C002130002384F82030A36A0BB12046984709
:101D8C0010BD2022EEE74FF40072EBE74FF4005247
:101D9C00E8E74FF40032E5E700000240080002409B
:101DAC0090F83930DBB2122B03D0322B01D0022049
:101DBC0070478368B3F5805F16D00268036A591CBC
:101DCC0001621B785360C38C013B9BB2C384DBB9AB
:101DDC000268D36823F08003D3600268D36843F0B1
:101DEC004003D36000207047036A02681B88C3F36A
:101DFC000803536003691BB9036A02330362E2E709
:101E0C00036A01330362DEE7002070472DE9F047D7
:101E1C00054642687D4B9A4200F29980EB683BB1D3
:101E2C00B3F5005F04D040F253717948FEF708FC1B
:101E3C002B6953B1B3F5806F07D0B3F5C06F04D0E5
:101E4C0040F254717248FEF7FBFB6B6933F00C02E5
:101E5C0000D123B940F255716D48FEF7F1FB2A68A9
:101E6C00136923F44053E9680B431361AB682A6987
:101E7C0013436A6913432968CA6822F4B05222F0EA
:101E8C000C021343CB602A68536923F44073A9698D
:101E9C000B435361D5F800805E4B98455DD0FFF73E
:101EAC00EFF800EB800000EB80006C68A400B0FB46
:101EBC00F4F4594FA7FB043464092601FFF7E0F84A
:101ECC0000EB800000EB80006C68A400B0FBF4FA1F
:101EDC00FFF7D6F800EB800000EB80006C68A400E4
:101EEC00B0FBF4F4A7FB043464094FF0640909FB5C
:101EFC0014A424013234A7FB0434640904F0F00464
:101F0C003444FFF7BDF800EB800000EB80006E68F6
:101F1C00B600B0FBF6F6FFF7B3F800EB800000EB71
:101F2C0080006B689B00B0FBF3F0A7FB003040090E
:101F3C0009FB10694FEA091909F13209A7FB0937A6
:101F4C00C7F343172744C8F80870BDE8F08740F280
:101F5C0052712F48FEF774FB60E7FFF7A7F800EB10
:101F6C00800000EB80006C68A400B0FBF4F42A4FF6
:101F7C00A7FB043464092601FFF798F800EB8000F6
:101F8C0000EB80006C68A400B0FBF4FAFFF78EF84D
:101F9C0000EB800000EB80006C68A400B0FBF4F454
:101FAC00A7FB043464094FF0640909FB14A4240151
:101FBC003234A7FB0434640904F0F0043444FFF712
:101FCC0075F800EB800000EB80006E68B600B0FB8B
:101FDC00F6F6FFF76BF800EB800000EB80006B6807
:101FEC009B00B0FBF3F3A7FB03235B0909FB13690D
:101FFC004FEA091909F13209A7FB0937C7F343174F
:10200C002744C8F80870BDE8F08700BF20AA440038
:10201C00D8330008003801401F85EB51002871D0DF
:10202C0010B5044683690BB30368374A93420CD04E
:10203C00A2F57442934208D002F58062934204D018
:10204C0040F207113148FEF7FBFAA369FBB1B3F577
:10205C00807F1CD0B3F5007F19D0B3F5407F16D02C
:10206C004FF484712948FEF7EBFA10E00368264A16
:10207C0093420CD0A2F57442934208D002F58062D0
:10208C00934204D04FF486712048FEF7D9FAA36826
:10209C003BB1B3F5805F04D04FF487711B48FEF75A
:1020AC00CFFAE36913BB94F839302BB3022384F8CD
:1020BC0039302268D36823F40053D3602046FFF7ED
:1020CC00A5FE2268136923F49043136122685369B7
:1020DC0023F02A0353612268D36843F40053D3607E
:1020EC000020E063012384F8393010BD40F20F1159
:1020FC000648FEF7A5FAD6E784F838302046FEF7F6
:10210C00A1F9D3E70120704700380140D83300080B
:10211C0010B590F83940E4B2012C03D0222C01D038
:10212C00022010BD002936D0002A36D090F8383065
:10213C00012B34D0012380F8383001628284C284B0
:10214C000023C36390F83930DBB2222B1FD012234B
:10215C0080F8393013460446026B12489062226BA9
:10216C001148D062226B1148106322680432206B34
:10217C00FFF79EFC23686FF040021A6022685369D7
:10218C0043F080035361002084F8380010BD3223E3
:10219C0080F83930DEE7012010BD012010BD02208F
:1021AC0010BD00BF55220008B3220008BD23000853
:1021BC0010B590F83940E4B2012C03D0122C01D0A8
:1021CC00022010BD002932D0002A32D090F83830CD
:1021DC00012B30D0012380F83830816282850023B6
:1021EC00C36390F83930DBB2122B1CD0222380F859
:1021FC00393013460A460446416B10488862616BBD
:10220C000F48C862616B0F48086321680431606B2A
:10221C00FFF74EFC2268536943F0400353610020E2
:10222C0084F8380010BD322380F83930E1E7012002
:10223C0010BD012010BD022010BD00BFBD22000842
:10224C00B1230008BD23000808B5436A0268126870
:10225C0012F0200F0CD10022DA8419684A6922F09E
:10226C0080024A611A68D36843F04003D36008BD0A
:10227C00184600F093FF08BD08B50268D36823F038
:10228C004003D36090F83930DBB2322B06D00123F7
:10229C0080F8393000F082FF002008BD222380F83E
:1022AC003930F7E7704708B5406AFFF7FBFF08BD08
:1022BC0008B5436A0268126812F0200F0ED1002292
:1022CC00DA8519684A6922F040024A6193F839208C
:1022DC00D2B2322A06D0012283F83920184600F0F7
:1022EC0053FF08BD122283F83920F7E708B590F8A0
:1022FC003930DBB2222B03D0322B01D0022008BDA7
:10230C008368B3F5805F29D00369002B3AD1836AC7
:10231C005A1C8262026852681A70C38D013B9BB2D0
:10232C00C385002B3BD10268D36823F02003D36014
:10233C0090F83930DBB2322B2DD00268D36823F4FD
:10234C008073D3600268536923F001035361012346
:10235C0080F8393000F018FF002008BD836A02694C
:10236C0042B902685268C2F308021A80836A0233C7
:10237C008362D2E702685268D2B21A80836A013350
:10238C008362CAE7826A531C836203685B6803F04A
:10239C007F031370C1E7122380F83930DAE700208D
:1023AC0008BD704708B5406AFFF7FBFF08BD7047D2
:1023BC0008B5406A0023C385C384012380F83930F3
:1023CC00C36B43F01003C363FFF7F1FF08BD10B5F7
:1023DC0082B0044603681968DA6811F0010F06D060
:1023EC0002F480721AB1C26B42F00102C263196826
:1023FC005A6902F0010211F0020F04D01AB1E16B1C
:10240C0041F00401E163196811F0040F04D01AB112
:10241C00E16B41F00201E163196811F0080F04D07F
:10242C001AB1E26B42F00802E2631A68DB6803F04F
:10243C00200312F0200F00D0ABB923681A68DB68B8
:10244C0003F0800312F0800F00D083B923681A6860
:10245C00DB6803F0400312F0400F00D05BB9E36B74
:10246C006BB902B010BD2046FFF740FFE5E72046F0
:10247C00FFF796FCEAE72046FFF7FEFEEFE723683E
:10248C001A6801925B680193019B012384F839302F
:10249C002046FFF78CFFE4E74368114A934208D8C3
:1024AC005800B1FBF0F0C0F30B03032B0CD8042045
:1024BC00704782684AB903EB4300B1FBF0F040F47B
:1024CC000040C0F30B034BB1704703EB830000EBF0
:1024DC008000B1FBF0F040F44040F2E70120F3E75C
:1024EC00A0860100002800F0AE8038B504460368D1
:1024FC00564A934208D002F58062934204D04FF4BE
:10250C00A5715348FEF79CF86368013B514A93420E
:10251C0077D8A3683BB1B3F5804F04D04FF4A671C4
:10252C004B48FEF78DF8E36823F47F7323F0030325
:10253C00002B6CD12369B3F5804F07D0B3F5404F16
:10254C0004D04FF4A7714248FEF77AF86369012B67
:10255C0004D940F24F113E48FEF772F8A36933F0EC
:10256C00FE035AD1E36933B1402B04D040F2511130
:10257C003748FEF765F8236A33B1802B04D04FF44B
:10258C00A9713348FEF75CF894F83530002B4AD02B
:10259C00242384F835302268136823F00103136078
:1025AC00FEF76EFD01462C4BA3FB00239B0C22680F
:1025BC00536020686568294A95423AD80133036212
:1025CC0025682046FFF768FFE8612268E369216A05
:1025DC000B43136022682369E1680B439360226804
:1025EC006369A1690B43D3602268136843F001034C
:1025FC0013600020A063202384F8353084F8360063
:10260C0038BD40F24B111248FEF71AF881E740F240
:10261C004D110F48FEF714F88CE74FF4A8710C48D5
:10262C00FEF70EF89EE784F834302046FDF7BAFE2C
:10263C00AEE74FF4967202FB03F3094AA2FB0323A5
:10264C009B090133BBE70120704700BF00540040D9
:10265C00103400087F1A060083DE1B43A08601009D
:10266C00D34D621038B504460D46012803D92B21F1
:10267C000348FDF7E5FF034B53F824305D6038BD8C
:10268C00483400087034000808B5054B53F8200096
:10269C00FFF728FF08B9002008BD012008BD00BFC6
:1026AC007034000808B50248FEF71BFD08BD00BFDA
:1026BC008C00002008B50248FEF713FD08BD00BFD2
:1026CC008C00002038B504460D46022804D8054B72
:1026DC0053F824305D6038BD38210348FDF7B0FF56
:1026EC00F5E700BFA43400087834000808B5054BA2
:1026FC0053F82000FFF792FC08B9002008BD012018
:10270C0008BD00BFA434000808B50A4601460448B9
:10271C00FFF7FEFC08B9002008BD4FF0FF3008BDE4
:10272C000801002008B582B20448FFF741FD08B942
:10273C00002008BD4FF0FF3008BD00BF480100204D
:10274C00014B1860704700BF20020020014B5860FD
:10275C00704700BF20020020014B9860704700BFFB
:10276C0020020020014BD860704700BF20020020DF
:10277C0010B50446032806D80549064B53F8240027
:10278C00FEF77CFE10BD23210348FDF759FFF3E74C
:10279C0020020020D8340008B034000870B504467C
:1027AC000D461646032807D8F2B22946054B53F8B6
:1027BC002400FFF709F870BD28210348FDF740FFFE
:1027CC00F2E700BFD8340008B034000838B504462E
:1027DC000D46032806D82946054B53F82400FEF76E
:1027EC00DFFF38BD2D210348FDF72AFFF3E700BFBB
:1027FC00D8340008B03400080FB400B583B004A975
:10280C0051F8040B019100F089F803B05DF804EB6A
:10281C0004B0704708B50C4B1B78002BFBD00B4B4E
:10282C001B686BB1094A591C11600A2119700848C0
:10283C001168091A89B2FFF767FF0022024B1A7060
:10284C00034A024B1A6008BD8801002030060020A4
:10285C00300200200FB400B583B004A951F8040B6A
:10286C00019100F05BF8074B1B68074A9B1AB3F504
:10287C00617F04DC03B05DF804EB04B07047FFF734
:10288C00C9FFF7E7300600203002002008B430B54D
:10289C0082B005AC54F8045B03460948FFF7ACFF63
:1028AC0001942146284600F039F80648FFF7A4FFAA
:1028BC00FFF7B0FF02B0BDE8304001B0704700BF79
:1028CC00E8340008FC3500080122014B1A707047EF
:1028DC008801002010B504460A2807D0084B1B6855
:1028EC0043B1591C064A11601C7010BD0D20FFF736
:1028FC00F1FFF3E7034B1B680BB12046984710BD63
:10290C00300600203406002010B5044602E00134E5
:10291C00FFF7E0FF20780028F9D110BD2DE9F04732
:10292C0086B006460191741C3078002800F0EE80C9
:10293C00252803D0FFF7CEFF2646F4E70236207891
:10294C00302804D02D2806D0002700240EE0A61C29
:10295C0060780127F9E7A61C60780227F5E704EBFD
:10296C0084046300C418303C30780136A0F1300286
:10297C00D2B2092AF3D96C281BD04C2819D00028C4
:10298C0000F0C480602819D9A0F12003DBB2A3F1B8
:10299C004202162A46D8DFE802F048383F45454542
:1029AC00454545454545454B45454513453F4545FD
:1029BC00420047F0040730780136E0E70346E6E7CB
:1029CC00019B1A1D0192D3F80090002500E00135FF
:1029DC0019F80530002BFAD103E02020FFF77AFF1D
:1029EC00454617F0020F04D105F10108A542F4D3B6
:1029FC0045464846FFF788FF03E02020FFF76AFFB3
:102A0C003D466F1CA542F8D38DE7019B1A1D019220
:102A1C001878FFF75FFF86E74FF00A0C0AE04FF0DB
:102A2C00100C07E0FFF756FF7DE74FF0020C01E0BA
:102A3C004FF0080C17F0040F0AD1442B0DD0019A5B
:102A4C00111D01911168442B0CD04FF0000E1EE0AB
:102A5C00019A111D01911168F5E7019A111D01915F
:102A6C001168F0E70029F0DA494247F00807ECE773
:102A7C0027252A44D2B20EF1010530320DF1180887
:102A8C00F04408F8102C73B10F2D0CD8AE46B1FBE6
:102A9C00FCF30CFB1312D2B21946092AEBD9782895
:102AAC00E6D00725E5E717F0080F06D006AB1D4466
:102ABC002D2305F8103C0EF1020517F0010F03D081
:102ACC004FF0300AA84606E04FF0200AFAE75046CD
:102ADC00FFF700FFC84617F0020F04D108F10109F7
:102AEC00A045F4D3C846013D06AB2B4413F8100C9B
:102AFC00FFF7F0FE002DF6D108F10105A045BFF45B
:102B0C0012AF2020FFF7E6FEA846F5E706B0BDE8B9
:102B1C00F0870000F8B506460F464FF41651022018
:102B2C00FFF7D0FD0220FFF7E1FD054608B128466E
:102B3C00F8BD0A4B1C683C4431460820FFF7F2FDF7
:102B4C00064B1B689C4203D9054B1B68002BF7D125
:102B5C00034B1B68002BEAD00125E8E74006002058
:102B6C008C01002038B5194B1B68002B2BDD174A44
:102B7C001368013B1360002109E0425C5409144DB9
:102B8C002B5D02F01F021344DBB22B5501310729D8
:102B9C00F3DD0E4B1B6843B9002304E00C49CA5CFF
:102BAC00D208CA540133072BF8DD01460820FFF781
:102BBC00B9FD38BD835C5C0903F01F030B55013272
:102BCC00072AF7DDF1E70022FAE700BF8C010020AD
:102BDC003806002043790B4A52799B1A0E2B01DDE3
:102BEC000F2070474379074A52799B1A13F10E0F45
:102BFC0004DB4079034B5B79C01A70476FF00E0011
:102C0C00704700BF3806002003790B4A12799B1AD3
:102C1C000E2B01DD0F2070470379074A12799B1A9E
:102C2C0013F10E0F04DB0079034B1B79C01A7047AC
:102C3C006FF00E00704700BF38060020C3790B4AB6
:102C4C00D2799B1A0E2B01DD0F207047C379074AEE
:102C5C00D2799B1A13F10E0F04DBC079034BDB798D
:102C6C00C01A70476FF00E00704700BF3806002086
:102C7C0083790B4A92799B1A0E2B01DD0F2070473A
:102C8C008379074A92799B1A13F10E0F04DB807932
:102C9C00034B9B79C01A70476FF00E00704700BF52
:102CAC0038060020434B1B680BB101207047F0B570
:102CBC0083B004464048FFF7CDFD637813F0010F55
:102CCC0047D0637813F0080F47D0637813F0040FE4
:102CDC0047D0637813F0020F47D0A37813F0020F9C
:102CEC0047D0A37813F0010F47D0A37813F0080F47
:102CFC0047D0A37813F0040F47D0E37813F0080FF4
:102D0C0047D0E37813F0010F47D0E37813F0020FAC
:102D1C0047D0E37813F0040F47D02848FFF79AFD0B
:102D2C002046FFF757FF05462046FFF76DFF064686
:102D3C002046FFF783FF07462046FFF799FF0090D8
:102D4C003B46324629461E48FFF784FD002003B05F
:102D5C00F0BD1C48FFF77EFDB3E71B48FFF77AFD7B
:102D6C00B3E71A48FFF776FDB3E71948FFF772FD92
:102D7C00B3E71848FFF76EFDB3E71748FFF76AFD96
:102D8C00B3E71648FFF766FDB3E71548FFF762FD9A
:102D9C00B3E71448FFF75EFDB3E71348FFF75AFD9E
:102DAC00B3E71248FFF756FDB3E71148FFF752FDA2
:102DBC00B3E700BF8C010020F8340008343500085C
:102DCC003835000804350008083500080C350008B3
:102DDC001035000814350008183500081C3500089B
:102DEC002035000824350008283500082C3500084B
:102DFC003035000808B5427801780248FFF72AFD03
:102E0C0008BD00BF5435000810B5044601780F48C2
:102E1C00FFF720FD2379032B06D8DFE803F0020A25
:102E2C000E120B48FFF716FD61880A48FFF712FDDA
:102E3C0010BD0948FFF70EFDF6E70848FFF70AFD3D
:102E4C00F2E70748FFF706FDEEE700BF6435000820
:102E5C007035000880350008743500087835000896
:102E6C007C35000810B5002407E004EB4402530045
:102E7C0008481844FFF7C8FF0134012CF5DD002485
:102E8C00002C00DD10BD044800EB4400FFF7B2FF3E
:102E9C000134F5E7080000200400002000207047F2
:102EAC0000B595B009230A934FF480330B9300229D
:102EBC000C92012210920222119212934FF4E01301
:102ECC0013930AA8FDF7BEFB48BB0F230593022101
:102EDC000691002307934FF480620892099305A88A
:102EEC00FDF77CFF28BB022301934FF400430393AF
:102EFC0001A8FEF7B3F920BBFEF7BCF84FF47A73C8
:102F0C00B0FBF3F0FEF7F2FC0420FEF705FD002207
:102F1C0011464FF0FF30FEF78FFC002006E00D4B02
:102F2C0087220D490D48FFF7B1FC012015B05DF863
:102F3C0004FB0B4B922208490848FFF7A7FC012021
:102F4C00F4E7084B992204490448FFF79FFC012041
:102F5C00ECE700BF883500082436000898350008D7
:102F6C009C350008B035000800B585B0284B9A692F
:102F7C0042F004029A619A6902F004020092009AEB
:102F8C009A6942F008029A619A6902F00802019269
:102F9C00019A9A6942F010029A619A6902F0100241
:102FAC000292029A9A6942F020029A619B6903F09C
:102FBC0020030393039B4FF40050FFF7C1FB002049
:102FCC00FFF7C4FB0020FFF7C7FB0220FFF7D0FB85
:102FDC002020FFF7B5FB0120FFF7B8FB0220FFF71D
:102FEC00C1FB0020FFF7C4FB1020FFF7A9FB094829
:102FFC00FFF7ACFB0020FFF7AFFB0220FFF7B8FB9D
:10300C00002220211046FFF7C9FB05B05DF804FB38
:10301C00001002400000111010B5FEF701FA10B1BB
:10302C000124204610BDFFF73BFF08B10124F8E74F
:10303C000120FFF75BFBFDF717F9FFF7EBFBFFF741
:10304C0093FF13490020FFF70DFB0020FFF71CFB3B
:10305C0008B10124E5E70F4B6F220F490F48FFF72A
:10306C0015FC42F210710E48FFF754FD044630B9BE
:10307C000C4B742208490948FFF708FCD1E70A4BAE
:10308C00712205490948FFF701FC0124C9E700BF7B
:10309C00400D0300CC3500081C360008983200089F
:1030AC004406002000360008E83500089835000872
:1030BC0008B5FDF7E9F808BD00B583B0FFF7ACFF24
:1030CC0050B10090264B222226492748FFF7DEFB01
:1030DC00012003B05DF804FB0A20FFF7DFFE38B1D6
:1030EC000090224B27221F491F48FFF7CFFBEFE729
:1030FC0000221F4B1A601F4B2C221A491E48FFF747
:10310C00C5FB16E01A4B19681C4BA3FB0123DB080B
:10311C0003EB83035A008B1A042BF3D1144B19685D
:10312C00164BA3FB0123DB0803EB83035A009142EC
:10313C00F4D1FFF7BDFF0E4B1968114BA3FB012314
:10314C001B09C3EB03135A008B1A092BDAD80D4851
:10315C00FFF7A8FDFFF786FEFFF75CFBD2E700BF89
:10316C003436000814360008983500084836000834
:10317C00400600206436000898320008CDCCCCCC38
:10318C00898888884406002008B502490248FFF760
:10319C00E9FC08BD440600204C06002008B5FFF7EA
:1031AC0093FB08BD002103E00B4B5B5843500431EB
:1031BC000A480B4B42189A42F6D30A4A02E0002303
:1031CC0042F8043B084B9A42F9D3FCF7C5FF00F0D8
:1031DC000FF8FFF771FF70477836000800000020E9
:1031EC00900100209001002054060020FEE7000012
:1031FC0070B500250C4E0D4CA41BA410A54209D192
:10320C0000F01AF800250A4E0A4CA41BA410A54283
:10321C0005D170BD56F8253098470135EEE756F8C4
:10322C00253098470135F2E77036000870360008F3
:10323C007036000874360008F8B500BFF8BC08BC3E
:10324C009E467047F8B500BFF8BC08BC9E46704758
:10325C0002030405060708090A0B0C0D0E0F1010CB
:10326C000102000000000000000000000102030445
:10327C000607080900000000010203046170704990
:10328C006E6974004D657373616765006D736700DB
:10329C00427574746F6E2052656C65617365640A57
:1032AC0000000000427574746F6E20507265737369
:1032BC0065640A00447269766572732F53544D33FA
:1032CC0032463178785F48414C5F4472697665725A
:1032DC002F5372632F73746D3332663178785F6855
:1032EC00616C5F7263632E63000000004472697648
:1032FC006572732F53544D3332463178785F4841A1
:10330C004C5F4472697665722F5372632F73746DC0
:10331C003332663178785F68616C5F7263635F65C6
:10332C00782E6300447269766572732F53544D3353
:10333C0032463178785F48414C5F447269766572E9
:10334C002F5372632F73746D3332663178785F68E4
:10335C00616C5F6770696F2E630000004472697660
:10336C006572732F53544D3332463178785F484130
:10337C004C5F4472697665722F5372632F73746D50
:10338C003332663178785F68616C5F636F72746535
:10339C00782E6300447269766572732F53544D33E3
:1033AC0032463178785F48414C5F44726976657279
:1033BC002F5372632F73746D3332663178785F6874
:1033CC00616C5F646D612E6300000000447269766D
:1033DC006572732F53544D3332463178785F4841C0
:1033EC004C5F4472697665722F5372632F73746DE0
:1033FC003332663178785F68616C5F756172742EF8
:10340C0063000000447269766572732F53544D3318
:10341C0032463178785F48414C5F44726976657208
:10342C002F5372632F73746D3332663178785F6803
:10343C00616C5F6932632E63000000004472697630
:10344C006572732F6D6964646C654C617965727318
:10345C002F4932432F5372632F4D575F4932432EFE
:10346C0063000000140000205000002044726976B4
:10347C006572732F6D6964646C654C6179657273E8
:10348C002F554152542F5372632F4D575F55534153
:10349C0052542E6300000000C800002008010020D8
:1034AC0048010020447269766572732F6D696464FB
:1034BC006C654C61796572732F4750494F2F53726D
:1034CC00632F4D575F4750494F2E63000008014052
:1034DC00000C01400010014000140140252D31303A
:1034EC007320252D336420252D3873005243206220
:1034FC00746E3A5B0000000055702C004C662C007A
:10350C0044772C0052692C0043722C0054722C000E
:10351C0053712C0043732C004C312C004C322C007A
:10352C0052312C0052322C005D0A000052432061B3
:10353C006E616C6F675B25642C25645D5B25642C68
:10354C0025645D0A000000004142282530327829AC
:10355C003A5B253038625D004D442825303278299D
:10356C003A5B00004672000046770000427700008C
:10357C00427200005D2C5B25645D0A006F7363432F
:10358C006F6E6669674661696C64000065727200F3
:10359C00636C6F636B436F6E6669674661696C64DD
:1035AC000000000048414C5F52434345785F506532
:1035BC0072697068434C4B436F6E6669670000001C
:1035CC007761697420666F7220524320636F6E6E50
:1035DC00656374696F6E2E2E2E00000052432069B5
:1035EC006E697469616C697A65206661696C6421C5
:1035FC000A000000524320636F6E6E65637465644D
:10360C0020737563657373006D61696E0000000053
:10361C0053595F696E69740053595F636C6F636BC8
:10362C00496E697400000000696E697469616C69A7
:10363C007A65204661696C64256400004932434315
:10364C006F6E6E656374696F6E546573742046613A
:10365C00696C642564000000737461727421210A22
:04366C00000000005A
:04367000310100081C
:043674000D0100083C
:1036780000A24A0411000000100000000000100021
:103688000000000000540040A08601000000000077
:1036980000000000004000000000000000000000E2
:1036A8000000000000000000000000000000000012
:1036B8000000000000000000000000000000000002
:1036C80000580040A0860100000000000000000033
:1036D80000400000000000000000000000000000A2
:1036E80000000000000000000000000000000000D2
:1036F800000000000000000000000000002C014055
:1037080000000000000000000000000000000000B1
:1037180000000000000000000000000000000000A1
:103728000000000000000000000000000000000091
:1037380000000000000000000038014000C2010045
:103748000000000000000000000000000C00000065
:103758000000000000000000000000000000000061
:103768000000000000000000000000000000000051
:1037780000000000000000000044004000C20100FA
:103788000000000000000000000000000C00000025
:103798000000000000000000000000000000000021
:1037A8000000000000000000000000000000000011
:1037B80000000000000000000048004080250000D4
:1037C8000000000000000000000000000C000000E5
:1037D80000000000000000000000000000000000E1
:1037E80000000000000000000000000000000000D1
:1037F80000000000000000000100000009000000B7
:04000005080031B10D
:00000001FF
